:100000000B308A00102B0000FF00030E8301A100BB
:100010000A08A0008A010408A2007708A300780853
:10002000A4007908A5007A08A60003170D08031399
:10003000A70003170F080313A80003170C080313E6
:10004000A90003170E080313AA00831383128B1D44
:100050002B280B185C280B1E2F288B185F288C3040
:100060008400801E35288C1A62288C308400001C85
:100070003B280C186528220884002308F700240870
:10008000F8002508F9002608FA00270803178D0054
:100090000313280803178F000313290803178C0084
:1000A00003132A0803178E00031320088A00210E69
:1000B0008300FF0E7F0E09008A110A12D1298A11CE
:1000C0000A12AE298A110A124D2B8A110A12072A26
:1000D0008030831C6E288316C50683128316CA01DE
:1000E000CB014108C9004508C906400803195C292D
:1000F000C800F700440803196529C802031901293B
:10010000031CBF284508CE00CE174608CD0047087F
:10011000CC00CB010310CE0CCD0CCC0CCB0CC80BFF
:100120008928C91F96284A1479294A1048104A1666
:10013000C330840083138E294A12C91BA928481C86
:10014000B428CE0CCD0CCC0CCB0CF70A03197429B7
:10015000B428CE1BB7280310CB0DCC0DCD0DCE0D82
:10016000F70303197429A9284A1721294A134108BA
:10017000C900C91FBD28CE176D29CE136D294408AB
:10018000C800F7004008C8024108CE00CE17420858
:10019000CD004308CC00CB010310CE0CCD0CCC0C11
:1001A000CB0CC80BCB28C91FD828CA147929CA1070
:1001B0004810CA16C730840083138E29CA12C91B7F
:1001C000EB28481CF628CE0CCD0CCC0CCB0CF70A37
:1001D00003197429F628CE1BF9280310CB0DCC0D7A
:1001E000CD0DCE0DF70303197429EB28CA17212969
:1001F000CA134508C900C91FFF28CE176D29CE13A1
:100200006D294508CE00CE174608CD004708CC0022
:10021000C91F0E29CE134A1579294A11CB0148105E
:10022000C330840083138E29C91B37294108C900B4
:10023000481C2129CE0CCD0CCC0CCB0CF70A031991
:100240007429CB1F3229CC0A031D3229CD0A031D84
:100250003229CE0A031D3229CE0CCD0CCC0CF70A64
:10026000031974294A1BB628CA1BF828562980305E
:10027000CE06CE1F3F2979294508C9004C294108DF
:10028000C900CE08031D4C29CD08031D4C29CC08FC
:10029000031D4C29F7016D29CE1B56290310CB0DE8
:1002A000CC0DCD0DCE0DF70B4C297429C91F5A2941
:1002B000CE176D29CE136D294408F7004508CE00EE
:1002C0004608CD004708CC006D294008F7004108DA
:1002D000CE004208CD004308CC004E08F8004D087F
:1002E000F9004C08FA00AC29F701F801F901FA010C
:1002F000AC29CB01CC09CD09CE09CB09CB0A031D12
:100300008729CC0A031D8729CD0A0319CE0A4A186A
:100310009528CA18D7284A190D293C290008CC0766
:10032000031C9829CD0A031D9829CE0A03194814E5
:1003300084030008CD07031CA029CE0A0319481422
:1003400084030008801F803ACE07031848144A1A15
:100350009C28CA1ADE281429831208008310540826
:100360008316C300831253088316C20083125208F7
:100370008316C100831251088316C000C701C6014D
:10038000C5017F30C400831268207A08D400790840
:10039000D3007808D2007708D1008B108A110A1296
:1003A0003B28831686168312861EB5010B108A1110
:1003B0000A123B28D401D301D201D101CA0A831603
:1003C000C008031DE72983120511E929831683124A
:1003D0000515E03083168500C108031DF32983123B
:1003E0008511F529831683128515E0308316850063
:1003F00083128E010B308F00DC308E004A08043CE3
:10040000031D062ACA0190010130B60008004A08FF
:10041000FC3E03183F2A043E432A8316C001C10153
:100420008312DA213F2A5408D8005308D700520813
:10043000D6005108D50001308316C000C1008312D8
:10044000DA213F2A5408E0005308DF005208DE009A
:100450005108DD008316C0010130C1008312DA218A
:100460003F2A5408DC005308DB005208DA00510828
:10047000D90001308316C000C1018312DA210C10AB
:100480008A110A123B280A108A140A1182070D2ABF
:10049000132A222A312A8316C501C3010A30C40057
:1004A000C20140084104031D582A0030F8004B2BBC
:1004B0004508C50A400784008313411883170008C4
:1004C000C60046082D3C031D712A0130C3004508B3
:1004D000C50A400784008313411883170008C6002B
:1004E0007E2A46082B3C031D7E2A4508C50A400784
:1004F00084008313411883170008C60046082F3C68
:100500000318412B4608393C031C412B4608303C5C
:10051000031DAA2A45084007840083134118831746
:100520000008783C03199E2A45084007840083137D
:10053000411883170008583C031DAA2A1030C40034
:10054000C50A4508C50A400784008313411883176C
:100550000008C60044080A3C031DEF2A46082F3C49
:100560000318EE2A4608393C031CEE2A0A30C7005D
:100570004208C800F701F801470803104818F707B8
:10058000F70CF80CC818F707F70CF80C4819F70720
:10059000F70CF80CC819F707F70CF80C481AF7070E
:1005A000F70CF80CC81AF707F70CF80C481BF707FC
:1005B000F70CF80CC81BF707F70CF80C7808C70005
:1005C000303046024707C2004508C50A400784008C
:1005D0008313411883170008C600AE2A412B440834
:1005E000103C031D412B4608603C0318FE2A4608B8
:1005F0007A3C031CFE2A4608DF39FF2A4608C6005B
:1006000046082F3C0318082B4608393C0318102BCA
:100610004608403C0318412B4608463C031C412B2E
:1006200046082F3C0318212B4608393C031C212B7C
:10063000420EC700F030C705303046024707C200FF
:100640002A2B420EC700F030C705413046020A3E51
:100650004707C2004508C50A4007840083134118B4
:1006600083170008C6004608603C03183E2B460866
:100670007A3C031C3E2B4608DF393F2B4608C60058
:10068000002B430B492B44080A3C031D492BC2098C
:10069000C20A4208F800831208003830840083132D
:1006A000F7010530F800780803195B2B7708800004
:1006B000840AF80B562B8316C00183128C1E5E2B06
:1006C0001A08BD003D083C3C031D7F2B8C1E662B89
:1006D0001A08BD003D082D3C03197B2B3D083E3C0C
:1006E00003197B2B83164008C00A383E840083130D
:1006F00083123D0880003D083E3C031D662B831697
:10070000C1013830C00083124B227808CB00831619
:10071000C1013B30C00083124B227808CE00831603
:10072000C1013C30C00083124B227808CF00390849
:100730004C3A0319A22B013A0319A52B053A0319C8
:10074000A82BAA2B0130CC00AA2B0230CC00AA2B5C
:100750000330CC003A086C3A0319B52B013A03195F
:10076000B82B053A0319BB2BBD2B0130CD00BD2B97
:100770000230CD00BD2B0330CD008C128A110A123D
:100780003B280C00532A4F285010A11021000C00C8
:100790005222201020214C10A023521000012010C2
:1007A0002010CD2043242022C526A029500020104F
:1007B000C3204D10C2244527A026C12A00006A305C
:1007C0008400831300080319F22B0630F800F701A8
:1007D000F70BE82BF80BE72B7B30F700F70BEE2B32
:1007E000800BE52B08007018F72B8812F82B881661
:1007F00083168812F018002C83120812022C83161C
:10080000831208168316081270190A2C8312881195
:100810000C2C83168312881583168811F019142C5A
:1008200083120811162C83168312081583160811DB
:10083000000083120817831608130230F700F70B25
:100840001F2C222C00008312081383160813831216
:100850000800F1018316881600308312881A0130CF
:10086000F1048316081600308312081A0130F700CD
:100870000310F70D7708F1048316881500308312F2
:1008800088190130F700F70DF70DFC30F7057708F0
:10089000F104831608150030831208190130F7009F
:1008A000F70DF70DF70DF830F7057708F10471082B
:1008B000F8000800831608138813831232123208D6
:1008C00083168700831288138316881388160816E8
:1008D000881508158312071632123208831687000E
:1008E00000008312081783160813000083122924BE
:1008F0007808F00008138316081300008312081705
:1009000083160813832C842C000083122924780872
:10091000EF000813831608138812081288110811B3
:10092000700EF700F030F705770883126F04F800B7
:100930007808EF00EF1F9E2C8316662CED08031D30
:10094000A32C8813A42C8817831688130000831205
:100950000712321232088316870000008312081330
:100960008316081383126E0EEF000F30EF056F0829
:10097000F000F3236E080F39EF00F000F3230800B6
:100980002830E6000C30E7000130E8000630E900CE
:10099000081383160813831288138316881383128F
:1009A0000712321232088316870088120812881143
:1009B0000811081388138312321232088316870035
:1009C0000F308312EA00DF230130E5006508033CA5
:1009D000031CF22C0330F000F3230530EA00DF2380
:1009E000E50AE62C0230F000F3230530EA00DF23AD
:1009F000E5016508033C031C092D6630650784008A
:100A000083130008EA00ED016A08EE005A24E50AA3
:100A1000F92C8A150A124D2B6A0B0F2D122D40301E
:100A2000EB00132DEB0101306902EB076B088038F6
:100A3000EC00ED016C08EE005A2408006808073A43
:100A400003192C2D0B3A0319312D063A0319392DB0
:100A5000023A03193F2D442D0130E900EA000C252C
:100A6000492DED010130EE005A240230EA00DF2367
:100A7000492D0130E9000230EA000C25492DED0135
:100A80001030EE005A24492D0130ED006808EE00C8
:100A90005A2408000B08E5008B13831603178C17E4
:100AA0000C140000000083120313E51B8B170317BF
:100AB0000C087F3903199E2D0313E50003170D0859
:100AC0000313E60003170F080313E7006508E800A7
:100AD0001E25660803178D000313670803178F0090
:100AE00003130B08E8008B13831603178C170C14E1
:100AF0000000000083120313E81B8B1703170C0D73
:100B00000E0D7F3903199E2D0313E50003170D0801
:100B10000313E60003170F080313E7006508E80056
:100B20001E25660803178D000313670803178F003F
:100B30008D0A03198F0A03134A2D031703130800A4
:100B40006C08F8016B020318A82D6B08F700B42D90
:100B5000F7010830ED00EB0DF70D6C087702031874
:100B6000F700F80DED0BAB2D08002030661E30307D
:100B7000E7006508F700E51FC52DF709F70A7708B4
:100B8000E5002D30E700E61766146508EB006430D9
:100B9000EC00A0257708E50030307807E80065080C
:100BA000EB000A30EC00A02530307707EA00303047
:100BB0007807E9006708F700303068020319E42D70
:100BC000E614E61B6615F82D6708E8002030E700FC
:100BD000303069020319F02D6614E61BE614F82D77
:100BE000031D6614031DF82D6808E9002030E80095
:100BF0006619FF2DE618032E6618072E0B2E6708C0
:100C00000C1E002E990068080C1E042E990069081D
:100C10000C1E082E99006A080C1E0C2E9900080064
:100C20006608ED006A08ED06ED1F1B2E0311031088
:100C3000E61B03144E2E6608ED006908EE006508F9
:100C4000EE020319292EED1F4E2E0308013A8300F0
:100C50004E2E6A08EE006608EE020319352EED1FCF
:100C60004E2E0308013A83004E2E6B08EE006708F3
:100C7000EE020319412EED1F4E2E0308013A8300A8
:100C80004E2E6C08EE006808EE0203194D2EED1F83
:100C90004E2E0308013A83004E2E03100800B601C1
:100CA000B53090008E010B308F00DC308E00B6081E
:100CB0000319572EB70A470846074807C9004608D0
:100CC000E5001830E600B5257C300C1E652E990035
:100CD0004708E5001830E600B5257C300C1E6E2E66
:100CE00099004808E5001830E600B5257C300C1E58
:100CF000772E99004908E5001830E600B5250D303B
:100D00000C1E802E99000A300C1E842E9900580863
:100D1000E8005708E7005608E6005508E500EC0132
:100D2000EB011630EA008630E9001026031CA92EDC
:100D30005C08E8005B08E7005A08E6005908E5008F
:100D4000EC01EB011630EA008630E90010260318AA
:100D5000ED2E6008E8005F08E7005E08E6005D0829
:100D6000E500EC01EB011630EA008630E9001026C0
:100D7000031CCB2E5C08E8005B08E7005A08E6007D
:100D80005908E500EC01EB011630EA008630E90075
:100D900010260318ED2E5808E8005708E7005608FB
:100DA000E6005508E500EC01EB011630EA0086305C
:100DB000E9001026031CF12E6008E8005F08E70038
:100DC0005E08E6005D08E500EC01EB011630EA0084
:100DD0008630E9001026031CF12E0030F8006D2F3C
:100DE0006D2F5C08E8005B08E7005A08E600590828
:100DF000E5005808EC005708EB005608EA005508D3
:100E0000E9001026031C1B2F6008E8005F08E700BC
:100E10005E08E6005D08E5005808EC005708EB00A6
:100E20005608EA005508E9001026031C1B2F013064
:100E3000F8006D2F6D2F5808E8005708E700560896
:100E4000E6005508E5005C08EC005B08EB005A087A
:100E5000EA005908E9001026031C452F6008E80045
:100E60005F08E7005E08E6005D08E5005C08EC004E
:100E70005B08EB005A08EA005908E9001026031C39
:100E8000452F0230F8006D2F6D2F5808E8005708E5
:100E9000E7005608E6005508E5006008EC005F082A
:100EA000EB005E08EA005D08E9001026031C6D2FC8
:100EB0005C08E8005B08E7005A08E6005908E5000E
:100EC0006008EC005F08EB005E08EA005D08E900DE
:100ED0001026031C6D2F0330F8008A150A12CA2B46
:100EE000EC08031D762FED0803197B2F6C080319FE
:100EF000ED03EC03702F080088108316881083120E
:0A0F00000810831608108312080081
:101000006608EB006508EA008E30F7006B08F80010
:101010006A08F900FA01F808031D18287908F80091
:10102000F9010830F702F808031D1828F7012028F5
:101030000310F81B1F28F90DF80DF7031828F813F3
:101040007A08ED007908EC007808EB007708EA00F0
:101050006D08F1006C08F0006B08EF006A08EE0004
:10106000F501F401F301F201FE01FD013430FC0051
:101070008630FB008316A301A2017730A1008630E1
:10108000A000A7014030A6001C30A5008930A400B4
:1010900083148312AB018B1BAB178B1383162708AA
:1010A000C3002608C2002508C1002408C000230888
:1010B000C7002208C6002108C5002008C4008A1104
:1010C000831268208A15AB1B8B177A088316AF0032
:1010D0007908AE007808AD007708AC00831483125D
:1010E000AB018B1BAB178B137E088316C3007D08E7
:1010F000C2007C08C1007B08C0007508C7007408E6
:10110000C6007308C5007208C4008A1183126820E3
:101110008A15AB1B8B1783162F08B3002E08B2005D
:101120002D08B1002C08B0007A08B7007908B60085
:101130007808B5007708B400300803196129BC00AD
:10114000340803196129BC02031CAB287F30BC079B
:1011500003186129B1288130BC02031C61290319DD
:1011600061293C08F700F801F901FA01BB013108D7
:10117000BA00BA173208B9003308B8001930BC00F9
:101180003708B8020318D4280130B9020318D4284C
:10119000BA020318D428BB020318D428BB0ABA0A1F
:1011A000B90A3708B80706293608B9020318EF2824
:1011B0000130BA020318EF28BB020318EF28BB0A5C
:1011C000BA0A3608B9073708B807031C0629B90A4E
:1011D000031D0629BA0A031D0629BB0A062935087C
:1011E0008038BA02031805290130BB02031805290B
:1011F000BB0A35088038BA073608B907031CE3284C
:10120000BA0A031DE328BB0AE3287A14BC0B092998
:1012100014290310B80DB90DBA0DBB0D0310FA0D4A
:10122000F90DF80DBD0DC0283D1C1C290310F80C4C
:10123000F90CFA0CBD0C1F29F70303196129BD1B1A
:1012400048290310B80DB90DBA0DBB0D3708B80207
:10125000031834290130B90203183429BA020318DB
:101260003429BB02031C57293608B90203183F2949
:101270000130BA0203183F29BB02031C5729350865
:101280008038BA02031848290130BB02031C5729D1
:10129000FA0A031D5729F90A031D5729F80A031DE5
:1012A0005729F70A03196129F80CF90CFA0C3108CF
:1012B000BC003508BC06BC1F5F29F8176529F81368
:1012C0006529F701F801F901FA017A08AB007908FC
:1012D000AA007808A9007708A80083148312AB013C
:1012E0008B1BAB178B1371088316C3007008C200E9
:1012F00083126F088316C10083126E088316C00024
:101300007508C7007408C6007308C5007208C400D9
:101310008A11831268208A15AB1B8B177A088316F3
:10132000AF007908AE007808AD007708AC002F0850
:10133000B3002E08B2002D08B1002C08B0002B0815
:10134000B7002A08B6002908B5002808B4003008FC
:101350000319172AB80034080319172AB807031805
:10136000B8297F30B802031C172A0319172ABC2991
:101370008130B8070318172A3808F700F801F90177
:10138000FA013108BC00BC173208BB003308BA00B0
:101390001830B800B9013A1CE5293708FA07031CD0
:1013A000D729F90A031DD729F80A0319B9173608EE
:1013B000F907031CDE29F80A0319B9173508B2002A
:1013C000B2173208F8070318B917B90DF80CF90C61
:1013D000FA0CBC0CBB0CBA0C0310B80BCA290130B8
:1013E000F7070318172AF81BFC29BC0DFA0DF90D95
:1013F000F80DF7030319172ABC1F0D2AFA0A031D5B
:101400000D2AF90A031D0D2AF80A031D0D2AF80CEE
:10141000F90CFA0CF70A0319172A3108B900350834
:10142000B906B91F152AF8171B2AF8131B2AF7014A
:10143000F801F901FA017A08AB007908AA007808E6
:10144000A9007708A80083108312AB018B1BAB1790
:101450008B1383162B08C3002A08C2002908C10079
:101460002808C0002308C7002208C6002108C500BC
:101470002008C4008A11831268208A15AB1B8B17C1
:101480007A088316AB007908AA007808A9007708C3
:10149000A8002B08AF002A08AE002908AD002808D4
:1014A000AC008E30F7002C08F7022D08F9002E084A
:1014B000F800F917F7080319682A0310F908031D43
:1014C000642AF8080319682AF90CF80CF70B5D2A4E
:1014D000AD1F6F2AF809F909F80A0319F90A790802
:1014E00079088312E2007808E1006808EB006708D9
:1014F000EA00ED011430EC006B086D068039EF0056
:10150000EB1F872AEA09EB09EA0A0319EB0AED1F28
:101510008E2AEC09ED09EC0A0319ED0AF801F9012C
:10152000F701FA016D08031D982A6C080319B22A05
:101530001030EE000310EA0DEB0DF70DFA0D6D08FB
:101540007A02031DA52A6C087702031CAE2A6C08D8
:10155000F702031CFA036D08FA020314F80DF90DE3
:10156000EE0B9A2AEF1FB92AF809F909F80A0319AC
:10157000F90A7908E8007808E700E81B0F2BE8086B
:10158000031DC62A6708003C03180F2B690BE72AC6
:1015900088148316881083126208ED006108EC003D
:1015A0008A1170278A1588108316881083126108A3
:1015B0006302EA006408EB006208031C620FEB029E
:1015C0006B08ED006A08EC008A1170278A1569081B
:1015D000023C031D0A2B08148316081083126208AC
:1015E000ED006108EC008A1170278A150810831637
:1015F0000810831261086302EA006408EB006208C5
:10160000031C620FEB026B08ED006A08EC008A1104
:1016100070278A1567080319E803E703BD2A080045
:1016200003081F398300813083169900A630980083
:10163000903083129800FF30B200B301B401B501BD
:10164000B601C101C201C301C401C501C601C70180
:10165000C8012730E4001030E30083161F149F14E4
:101660001F159F1107309C0083138312AC01AD013D
:10167000D101D201D301D401D501D601D701D801BE
:10168000D901DA01DB01DC01DD01DE01DF01E0016E
:10169000831681138A118312C02C8A150B168B15A1
:1016A00083168C160C14C03083128B0431308316D1
:1016B000860006168312061A5F2B0130B5004B0B0D
:1016C000902BD008031D902B0130D000B4004D08A2
:1016D000013A0319722B033A03197C2B013A0319BF
:1016E000862B8F2BE030831685008312051083161E
:1016F0008500831285148F2BE030831685008312BA
:10170000851083168500831205148F2BE030831615
:101710008500831205148316850083128514C52B5A
:10172000CB08031DC52BD0080319C52BD001B4016C
:10173000C5014508C400C300C200C100C801480873
:10174000C700C600B301C13003178D0003308F00FE
:101750008A1103134A258A150530E9000130EA0091
:101760008A110C258A15C23003178D0003308F00B3
:101770008A1103134A258A150230E500FA30EA007F
:101780008A11DF238A15E50BBE2BB4080319BA2C86
:101790008A114F2E8A157808FC3E0318D82B043E78
:1017A000DC2CC20AD82BC30AD82BC40AD82BC50AF2
:1017B000C10A4108033C0318322CC101B308031DC0
:1017C000212C420843020318F22B4208440203185A
:1017D000F22B420845020318F22BC60A0130B3006F
:1017E000BE00202C430842020318032C4308440285
:1017F0000318032C430845020318032CC70A0130C1
:10180000B300BF00202C440842020318142C4408E3
:1018100043020318142C440845020318142CC80A68
:101820000130B300C000202C450842020318202CD0
:10183000450844020318202C450843020318202CB5
:101840002D2C4508420203182D2C4508440203188C
:101850002D2C45084302031CB301C5014508C400F3
:10186000C300C200C73003178D0003308F008A11F8
:1018700003134A258A15C83003178D0003308F00E3
:101880008A1103134A258A150130E9000230EA0063
:101890008A110C258A1530304607E500E8008A11C8
:1018A0001E258A150530E9000230EA008A110C2550
:1018B0008A1530304707E500E8008A111E258A1591
:1018C0000930E9000230EA008A110C258A1530300F
:1018D0004807E500E8008A111E258A150430E90052
:1018E0000130EA008A110C258A15003007190130F1
:1018F000303EE500E8008A111E258A15BE0803194E
:101900009A2C09189A2CE6017830E5000330E8009B
:10191000E830E7000130E9000020E601E50103308E
:10192000E800E830E7000130E90000208A117C2758
:101930008A15BE01BF080319B62C071DBF01E601B9
:101940007830E5000330E800E830E7000230E900D5
:101950000020E601E5010330E800E830E70002304E
:10196000E90000208A117C278A15BF01C008031DE9
:10197000C001D92C0130E900EA008A110C258A1532
:10198000CF3003178D0003308F008A1103134A25CF
:101990008A150130E9000230EA008A110C258A1507
:1019A000D73003178D0003308F008A1103134A25A7
:1019B0008A158316592B63000A108A100A158207AC
:0819C000D72BD12BD32BD52B23
:02400E00323F3F
:00000001FF
;PIC16F877A
;CRC=DF3E  CREATED="23-Jul-20 01:24"
