:1000000006308A007C2E0000FF00030E8301A10051
:100010000A08A0008A010408A2007708A300780853
:10002000A4007908A5007A08A60003170D08031399
:10003000A70003170F080313A80003170C080313E6
:10004000A90003170E080313AA00831383128B1D44
:100050002B280B185C280B1E2F288B185F288C3040
:100060008400801E35288C1A62288C308400001C85
:100070003B280C186528220884002308F700240870
:10008000F8002508F9002608FA00270803178D0054
:100090000313280803178F000313290803178C0084
:1000A00003132A0803178E00031320088A00210E69
:1000B0008300FF0E7F0E09008A110A12D1298A11CE
:1000C0000A12AE298A110A12532B8A110A12072A20
:1000D0008030831C6E288316C50683128316CA01DE
:1000E000CB014108C9004508C906400803195C292D
:1000F000C800F700440803196529C802031901293B
:10010000031CBF284508CE00CE174608CD0047087F
:10011000CC00CB010310CE0CCD0CCC0CCB0CC80BFF
:100120008928C91F96284A1479294A1048104A1666
:10013000C330840083138E294A12C91BA928481C86
:10014000B428CE0CCD0CCC0CCB0CF70A03197429B7
:10015000B428CE1BB7280310CB0DCC0DCD0DCE0D82
:10016000F70303197429A9284A1721294A134108BA
:10017000C900C91FBD28CE176D29CE136D294408AB
:10018000C800F7004008C8024108CE00CE17420858
:10019000CD004308CC00CB010310CE0CCD0CCC0C11
:1001A000CB0CC80BCB28C91FD828CA147929CA1070
:1001B0004810CA16C730840083138E29CA12C91B7F
:1001C000EB28481CF628CE0CCD0CCC0CCB0CF70A37
:1001D00003197429F628CE1BF9280310CB0DCC0D7A
:1001E000CD0DCE0DF70303197429EB28CA17212969
:1001F000CA134508C900C91FFF28CE176D29CE13A1
:100200006D294508CE00CE174608CD004708CC0022
:10021000C91F0E29CE134A1579294A11CB0148105E
:10022000C330840083138E29C91B37294108C900B4
:10023000481C2129CE0CCD0CCC0CCB0CF70A031991
:100240007429CB1F3229CC0A031D3229CD0A031D84
:100250003229CE0A031D3229CE0CCD0CCC0CF70A64
:10026000031974294A1BB628CA1BF828562980305E
:10027000CE06CE1F3F2979294508C9004C294108DF
:10028000C900CE08031D4C29CD08031D4C29CC08FC
:10029000031D4C29F7016D29CE1B56290310CB0DE8
:1002A000CC0DCD0DCE0DF70B4C297429C91F5A2941
:1002B000CE176D29CE136D294408F7004508CE00EE
:1002C0004608CD004708CC006D294008F7004108DA
:1002D000CE004208CD004308CC004E08F8004D087F
:1002E000F9004C08FA00AC29F701F801F901FA010C
:1002F000AC29CB01CC09CD09CE09CB09CB0A031D12
:100300008729CC0A031D8729CD0A0319CE0A4A186A
:100310009528CA18D7284A190D293C290008CC0766
:10032000031C9829CD0A031D9829CE0A03194814E5
:1003300084030008CD07031CA029CE0A0319481422
:1003400084030008801F803ACE07031848144A1A15
:100350009C28CA1ADE281429831208008310540826
:100360008316C300831253088316C20083125208F7
:100370008316C100831251088316C000C701C6014D
:10038000C5017F30C400831268207A08D400790840
:10039000D3007808D2007708D1008B108A110A1296
:1003A0003B28831686168312861EB5010B108A1110
:1003B0000A123B28D401D301D201D101CA0A831603
:1003C000C008031DE72983120511E929831683124A
:1003D0000515E03083168500C108031DF32983123B
:1003E0008511F529831683128515E0308316850063
:1003F00083128E010B308F00DC308E004A08043CE3
:10040000031D062ACA0190010130B60008004A08FF
:10041000FC3E0318452A043E492A8316C001C10147
:100420008312DA21452A5408D8005308D70052080D
:10043000D6005108D50001308316C000C1008312D8
:10044000DA218716B2123208831687008312452AF2
:100450005408E0005308DF005208DE005108DD00B8
:100460008316C0010130C1008312DA21452A5408E5
:10047000DC005308DB005208DA005108D9000130D3
:100480008316C000C1018312DA210C108A110A12EE
:100490003B280A108A140A1182070D2A132A282AD7
:1004A000372A8316C501C3010A30C400C2014008BF
:1004B0004104031D5E2A0030F800512B4508C50A8F
:1004C000400784008313411883170008C6004608BC
:1004D0002D3C031D772A0130C3004508C50A40079B
:1004E00084008313411883170008C600842A460835
:1004F0002B3C031D842A4508C50A4007840083134A
:10050000411883170008C60046082F3C0318472BE4
:100510004608393C031C472B4608303C031DB02AD3
:100520004508400784008313411883170008783C6E
:100530000319A42A45084007840083134118831730
:100540000008583C031DB02A1030C400C50A4508F5
:10055000C50A400784008313411883170008C600AA
:1005600044080A3C031DF52A46082F3C0318F42AC8
:100570004608393C031CF42A0A30C7004208C80068
:10058000F701F801470803104818F707F70CF80CB3
:10059000C818F707F70CF80C4819F707F70CF80C10
:1005A000C819F707F70CF80C481AF707F70CF80CFE
:1005B000C81AF707F70CF80C481BF707F70CF80CEC
:1005C000C81BF707F70CF80C7808C7003030460254
:1005D0004707C2004508C50A400784008313411835
:1005E00083170008C600B42A472B4408103C031D9B
:1005F000472B4608603C0318042B46087A3C031C32
:10060000042B4608DF39052B4608C60046082F3C58
:1006100003180E2B4608393C0318162B4608403C9D
:100620000318472B4608463C031C472B46082F3C23
:100630000318272B4608393C031C272B420EC70002
:10064000F030C705303046024707C200302B420E5B
:10065000C700F030C705413046020A3E4707C200D6
:100660004508C50A40078400831341188317000812
:10067000C6004608603C0318442B46087A3C031C1D
:10068000442B4608DF39452B4608C600062B430B92
:100690004F2B44080A3C031D4F2BC209C20A4208D3
:1006A000F80083120800383084008313F701053006
:1006B000F80078080319612B77088000840AF80B8A
:1006C0005C2B8316C00183128C1E642B1A08BD009C
:1006D0003D083C3C031D852B8C1E6C2B1A08BD006D
:1006E0003D082D3C0319812B3D083E3C0319812B0D
:1006F00083164008C00A383E8400831383123D08E5
:1007000080003D083E3C031D6C2B8316C101383030
:10071000C000831251227808CB008316C1013B3000
:10072000C000831251227808CE008316C1013C30EC
:10073000C000831251227808CF0039084C3A0319BF
:10074000A82B013A0319AB2B053A0319AE2BB02B9A
:100750000130CC00B02B0230CC00B02B0330CC00E9
:100760003A086C3A0319BB2B013A0319BE2B053A20
:100770000319C12BC32B0130CD00C32B0230CD0098
:10078000C32B0330CD008C128A110A123B2852224F
:10079000201020214C10A023521000000C005222E7
:1007A000201020214C10A023521000006A30840039
:1007B000831300080319E92B0630F800F701F70B43
:1007C000DF2BF80BDE2B7B30F700F70BE52B800BD4
:1007D000DC2B08007018EE2B8812EF2B881683167E
:1007E0008812F018F72B83120812F92B8316831244
:1007F0000816831608127019012C83128811032C15
:1008000083168312881583168811F0190B2C831216
:1008100008110D2C83168312081583160811000089
:1008200083120817831608130230F700F70B162CF3
:10083000192C000083120813831608138312080072
:10084000F1018316881600308312881A0130F104F2
:100850008316081600308312081A0130F7000310BF
:10086000F70D7708F1048316881500308312881974
:100870000130F700F70DF70DFC30F7057708F104AC
:10088000831608150030831208190130F700F70DA0
:10089000F70DF70DF830F7057708F1047108F80047
:1008A0000800831608138813831232123208831645
:1008B00087008312881383168813881608168815F4
:1008C00008158312071632123208831687000000BB
:1008D0008312081783160813000083122024780857
:1008E000F0000813831608130000831208178316FC
:1008F00008137A2C7B2C0000831220247808EF0048
:100900000813831608138812081288110811700E34
:10091000F700F030F705770883126F04F8007808C5
:10092000EF00EF1F952C83165D2CED08031D9A2C0C
:1009300088139B2C881783168813000083120712D4
:1009400032123208831687000000831208138316C0
:10095000081383126E0EEF000F30EF056F08F000E2
:10096000EA236E080F39EF00F000EA230800283070
:10097000E6000C30E7000130E8000630E90008131B
:1009800083160813831288138316881383120712A1
:100990003212320883168700881208128811081153
:1009A00008138813831232123208831687000F301F
:1009B0008312EA00D6230130E5006508033C031CDE
:1009C000E92C0330F000EA230530EA00D623E50ADB
:1009D000DD2C0230F000EA230530EA00D623E501E1
:1009E0006508033C031C002D6630650784008313F3
:1009F0000008EA00ED016A08EE005124E50AF02C37
:100A00008A110A12BB2E6A0B062D092D4030EB000D
:100A10000A2DEB0101306902EB076B088038EC000E
:100A2000ED016C08EE00512408006808073A03192C
:100A3000232D0B3A0319282D063A0319302D023ABB
:100A40000319362D3B2D0130E900EA000325402D26
:100A5000ED010130EE0051240230EA00D623402D92
:100A60000130E9000230EA000325402DED0110308D
:100A7000EE005124402D0130ED006808EE005124B5
:100A800008000B08E5008B13831603178C170C1452
:100A90000000000083120313E51B8B1703170C08DB
:100AA0007F390319952D0313E50003170D08031370
:100AB000E60003170F080313E7006508E800152593
:100AC000660803178D000313670803178F000313CD
:100AD0000B08E8008B13831603178C170C14000007
:100AE000000083120313E81B8B1703170C0D0E0D68
:100AF0007F390319952D0313E50003170D08031320
:100B0000E60003170F080313E7006508E800152542
:100B1000660803178D000313670803178F008D0AFB
:100B200003198F0A0313412D0317031308008E3096
:100B3000F70083162C08F7022D08F9002E08F8009C
:100B4000F917F7080319AF2D0310F908031DAB2D92
:100B5000F8080319AF2DF90CF80CF70BA42DAD1FF5
:100B6000B62DF809F909F80A0319F90A83120800E1
:100B70006C08F8016B020318C02D6B08F700CC2D30
:100B8000F7010830ED00EB0DF70D6C087702031844
:100B9000F700F80DED0BC32D08002030661E303035
:100BA000E7006508F700E51FDD2DF709F70A77086C
:100BB000E5002D30E700E61766146508EB006430A9
:100BC000EC00B8257708E50030307807E8006508C4
:100BD000EB000A30EC00B82530307707EA003030FF
:100BE0007807E9006708F700303068020319FC2D28
:100BF000E614E61B6615102E6708E8002030E700B3
:100C0000303069020319082E6614E61BE614102E14
:100C1000031D6614031D102E6808E9002030E8004B
:100C20006619172EE6181B2E66181F2E232E67082E
:100C30000C1E182E990068080C1E1C2E99006908BD
:100C40000C1E202E99006A080C1E242E9900080004
:100C50006608ED006A08ED06ED1F332E0311031040
:100C6000E61B0314662E6608ED006908EE006508B1
:100C7000EE020319412EED1F662E0308013A830090
:100C8000662E6A08EE006608EE0203194D2EED1F6F
:100C9000662E0308013A8300662E6B08EE00670893
:100CA000EE020319592EED1F662E0308013A830048
:100CB000662E6C08EE006808EE020319652EED1F23
:100CC000662E0308013A8300662E03100800EC0824
:100CD000031D6D2EED080319722E6C080319ED0328
:100CE000EC03672E08008810831688108312081002
:100CF000831608108312080003081F39830081300F
:100D000083169900A6309800903083129800FF3027
:100D1000B200B301B401B501B601C101C201C30102
:100D2000C401C501C601C701C801CA01CB01D00178
:100D30002730E4001030E30083161F149F141F15A2
:100D40009F1107309C0083138312AC01AD01D101C8
:100D5000D201D301D401D501D601D701D801D901DF
:100D6000DA01DB01DC01DD01DE01DF01E0018316D8
:100D700081138312B72C0B168B1583168C160C144B
:100D8000C03083128B04313083168600061683121E
:100D9000061ACC2E0130B500D008031DFA2E013002
:100DA000D000B4004D08013A0319DD2E033A0319AF
:100DB000E72E013A0319F12EFA2EE0308316850052
:100DC000831205108316850083128514FA2EE030F5
:100DD00083168500831285108316850083120514FF
:100DE000FA2EE030831685008312051483168500E1
:100DF00083128514B4080319DE2F8A1500288A117E
:100E00007808FC3E03180D2F043EE12FC20A0D2F77
:100E1000C30A0D2FC40A0D2FC50AC10A4108033C9D
:100E20000318672FC101B308031D562F4208430260
:100E30000318272F420844020318272F42084502AF
:100E40000318272FC60A0130B300BE00552F4308F0
:100E500042020318382F430844020318382F43086E
:100E600045020318382FC70A0130B300BF00552FC1
:100E7000440842020318492F440843020318492F2B
:100E8000440845020318492FC80A0130B300C000C6
:100E9000552F450842020318552F450844020318F0
:100EA000552F450843020318552F622F450842026B
:100EB0000318622F450844020318622F45084302B5
:100EC000031CB301C5014508C400C300C200CE30F5
:100ED00003178D0003308F0003134125CF30031714
:100EE0008D0003308F00031341250130E9000230EB
:100EF000EA00032530304607E500E80015250530F7
:100F0000E9000230EA00032530304707E500E80039
:100F100015250930E9000230EA0003253030480782
:100F2000E500E80015250430E9000130EA0003255A
:100F3000003007190130303EE500E8001525BE08F5
:100F40000319BD2F0918BD2FE6017830E5000330E5
:100F5000E800E830E7000130E9008A15FE218A1137
:100F6000E601E5010330E800E830E7000130E90080
:100F70008A15FE218A117326BE01BF080319DB2FD3
:100F8000071DBF01E6017830E5000330E800E830D6
:100F9000E7000230E9008A15FE218A11E601E50129
:100FA0000330E800E830E7000230E9008A15FE214E
:100FB0008A117326BF01C008031DC0018316C62E07
:100FC00063000A148A140A1582070C2F062F082FB3
:020FD0000A2FE6
:10100000B601B53090008E010B308F00DC308E00C1
:10101000B608031908280130E900EA008A110325FF
:101020008A15C73003178D0003308F008A11031310
:1010300041258A150130E9000230EA008A110325B2
:101040008A158310AB018B1BAB178B1358088316C3
:10105000C300831257088316C200831256088316F2
:10106000C100831255088316C000C701C601403075
:10107000C5008430C4008A11831268208A15AB1B16
:101080008B177A088316AF007908AE007808AD0098
:101090007708AC008A11831297258A157808E50035
:1010A000E8008A1115258A150530E9000230EA00AA
:1010B0008A1103258A158310AB018B1BAB178B1389
:1010C0005C088316C30083125B088316C200831278
:1010D0005A088316C100831259088316C000C7013D
:1010E000C6014030C5008430C4008A1183126820D4
:1010F0008A15AB1B8B177A088316AF007908AE00F0
:101100007808AD007708AC008A11831297258A15FC
:101110007808E500E8008A1115258A150930E900EC
:101120000230EA008A1103258A158310AB018B1B5C
:10113000AB178B1360088316C30083125F088316F6
:10114000C20083125E088316C10083125D088316F5
:10115000C000C701C6014030C5008430C4008A11F8
:10116000831268208A15AB1B8B177A088316AF0091
:101170007908AE007808AD007708AC008A118312B8
:1011800097258A157808E500E8008A1115258A1543
:10119000B70A470846074807C9004608E50018305F
:1011A000E6008A11CD258A157C300C1ED5289900C1
:1011B0004708E5001830E6008A11CD258A157C30F5
:1011C0000C1EE02899004808E5001830E6008A1156
:1011D000CD258A157C300C1EEB2899004908E500C6
:1011E0001830E6008A11CD258A150D300C1EF62820
:1011F00099000A300C1EFA2899005808E800570890
:10120000E7005608E6005508E500EC01EB01163052
:10121000EA008630E9008A1128268A15031C232952
:101220005C08E8005B08E7005A08E6005908E5009A
:10123000EC01EB011630EA008630E9008A1128261D
:101240008A1503186F296008E8005F08E7005E0848
:10125000E6005D08E500EC01EB011630EA0086309F
:10126000E9008A1128268A15031C49295C08E80030
:101270005B08E7005A08E6005908E500EC01EB01BD
:101280001630EA008630E9008A1128268A150318EC
:101290006F295808E8005708E7005608E600550887
:1012A000E500EC01EB011630EA008630E9008A1116
:1012B00028268A15031C73296008E8005F08E700E8
:1012C0005E08E6005D08E500EC01EB011630EA007F
:1012D0008630E9008A1128268A15031C73290030FC
:1012E000F800FB29FB295C08E8005B08E7005A08C6
:1012F000E6005908E5005808EC005708EB005608CE
:10130000EA005508E9008A1128268A15031CA1293C
:101310006008E8005F08E7005E08E6005D08E50099
:101320005808EC005708EB005608EA005508E90099
:101330008A1128268A15031CA1290130F800FB29EF
:10134000FB295808E8005708E7005608E60055084A
:10135000E5005C08EC005B08EB005A08EA0059085D
:10136000E9008A1128268A15031CCF296008E800A5
:101370005F08E7005E08E6005D08E5005C08EC0039
:101380005B08EB005A08EA005908E9008A11282690
:101390008A15031CCF290230F800FB29FB295808C5
:1013A000E8005708E7005608E6005508E500600821
:1013B000EC005F08EB005E08EA005D08E9008A11B6
:1013C00028268A15031CFB295C08E8005B08E70057
:1013D0005A08E6005908E5006008EC005F08EB00D9
:1013E0005E08EA005D08E9008A1128268A15031CB8
:1013F000FB290330F8008A110A12FF2E6608EB0061
:101400006508EA008E30F7006B08F8006A08F900FA
:10141000FA01F808031D162A7908F800F9010830C6
:10142000F702F808031D162AF7011E2A0310F81BFD
:101430001D2AF90DF80DF703162AF8137A08ED00A6
:101440007908EC007808EB007708EA006D08F100F5
:101450006C08F0006B08EF006A08EE00F501F4017B
:10146000F301F201FE01FD013430FC008630FB0087
:101470008316A301A2017730A1008630A000A70146
:101480004030A6001C30A5008930A40083148312CC
:10149000AB018B1BAB178B1383162708C3002608E1
:1014A000C2002508C1002408C0002308C700220884
:1014B000C6002108C5002008C4008A1183126820D4
:1014C0008A15AB1B8B177A088316AF007908AE001C
:1014D0007808AD007708AC0083148312AB018B1B36
:1014E000AB178B137E088316C3007D08C2007C08EF
:1014F000C1007B08C0007508C7007408C6007308E7
:10150000C5007208C4008A11831268208A15AB1BBB
:101510008B1783162F08B3002E08B2002D08B100D8
:101520002C08B0007A08B7007908B6007808B50032
:101530007708B400300803195F2BBC003408031986
:101540005F2BBC02031CA92A7F30BC0703185F2B4A
:10155000AF2A8130BC02031C5F2B03195F2B3C08B0
:10156000F700F801F901FA01BB013108BA00BA1716
:101570003208B9003308B8001930BC003708B80287
:101580000318D22A0130B9020318D22ABA0203186A
:10159000D22ABB020318D22ABB0ABA0AB90A3708F0
:1015A000B807042B3608B9020318ED2A0130BA0235
:1015B0000318ED2ABB020318ED2ABB0ABA0A360843
:1015C000B9073708B807031C042BB90A031D042BFD
:1015D000BA0A031D042BBB0A042B35088038BA0253
:1015E0000318032B0130BB020318032BBB0A350879
:1015F0008038BA073608B907031CE12ABA0A031D66
:10160000E12ABB0AE12A7A14BC0B072B122B031028
:10161000B80DB90DBA0DBB0D0310FA0DF90DF80D8B
:10162000BD0DBE2A3D1C1A2B0310F80CF90CFA0C48
:10163000BD0C1D2BF70303195F2BBD1B462B03109D
:10164000B80DB90DBA0DBB0D3708B8020318322B0F
:101650000130B9020318322BBA020318322BBB0235
:10166000031C552B3608B90203183D2B0130BA0272
:1016700003183D2BBB02031C552B35088038BA02DA
:101680000318462B0130BB02031C552BFA0A031D1D
:10169000552BF90A031D552BF80A031D552BF70A84
:1016A00003195F2BF80CF90CFA0C3108BC00350853
:1016B000BC06BC1F5D2BF817632BF813632BF701D7
:1016C000F801F901FA017A08AB007908AA00780854
:1016D000A9007708A80083148312AB018B1BAB17FA
:1016E0008B1371088316C3007008C20083126F0841
:1016F0008316C10083126E088316C0007508C700E8
:101700007408C6007308C5007208C4008A118312E9
:1017100068208A15AB1B8B177A088316AF007908EF
:10172000AE007808AD007708AC002F08B3002E0893
:10173000B2002D08B1002C08B0002B08B7002A0811
:10174000B6002908B5002808B40030080319152C84
:10175000B80034080319152CB8070318B62B7F30CE
:10176000B802031C152C0319152CBA2B8130B807AD
:101770000318152C3808F700F801F901FA013108AF
:10178000BC00BC173208BB003308BA001830B800E0
:10179000B9013A1CE32B3708FA07031CD52BF90AC9
:1017A000031DD52BF80A0319B9173608F907031CCE
:1017B000DC2BF80A0319B9173508B200B217320842
:1017C000F8070318B917B90DF80CF90CFA0CBC0C92
:1017D000BB0CBA0C0310B80BC82B0130F707031869
:1017E000152CF81BFA2BBC0DFA0DF90DF80DF703AB
:1017F0000319152CBC1F0B2CFA0A031D0B2CF90A1C
:10180000031D0B2CF80A031D0B2CF80CF90CFA0C19
:10181000F70A0319152C3108B9003508B906B91FA4
:10182000132CF817192CF813192CF701F801F901EA
:10183000FA017A08AB007908AA007808A9007708AD
:10184000A80083108312AB018B1BAB178B1383167D
:101850002B08C3002A08C2002908C1002808C000BC
:101860002308C7002208C6002108C5002008C400BC
:101870008A11831268208A15AB1B8B177A0883168E
:10188000AB007908AA007808A9007708A8002B08FF
:10189000AF002A08AE002908AD002808AC008A1164
:1018A000831297258A1579087908E2007808E10003
:1018B0006808EB006708EA00ED011430EC006B08E3
:1018C0006D068039EF00EB1F6A2CEA09EB09EA0A82
:1018D0000319EB0AED1F712CEC09ED09EC0A031951
:1018E000ED0AF801F901F701FA016D08031D7B2CDF
:1018F0006C080319952C1030EE000310EA0DEB0D67
:10190000F70DFA0D6D087A02031D882C6C0877021A
:10191000031C912C6C08F702031CFA036D08FA02F1
:101920000314F80DF90DEE0B7D2CEF1F9C2CF8091C
:10193000F909F80A0319F90A7908E8007808E700B4
:10194000E81BF22CE808031DA92C6708003C0318CB
:10195000F22C690BCA2C8814831688108312620833
:10196000ED006108EC008A1167268A15881083163D
:101970008810831261086302EA006408EB006208C1
:10198000031C620FEB026B08ED006A08EC008A1181
:1019900067268A156908023C031DED2C081483167E
:1019A000081083126208ED006108EC008A116726B6
:1019B0008A15081083160810831261086302EA0072
:1019C0006408EB006208031C620FEB026B08ED0079
:1019D0006A08EC008A1167268A1567080319E8036C
:0619E000E703A02C080043
:02400E00323F3F
:00000001FF
;PIC16F877A
;CRC=1BED  CREATED="23-Jul-20 15:40"
